{
  "abi": [
    {
      "inputs": [],
      "stateMutability": "nonpayable",
      "type": "constructor"
    },
    {
      "inputs": [],
      "name": "generateStats",
      "outputs": [
        {
          "internalType": "uint256[]",
          "name": "",
          "type": "uint256[]"
        }
      ],
      "stateMutability": "view",
      "type": "function"
    },
    {
      "inputs": [],
      "name": "owner",
      "outputs": [
        {
          "internalType": "address",
          "name": "",
          "type": "address"
        }
      ],
      "stateMutability": "view",
      "type": "function"
    }
  ],
  "bytecode": {
    "object": "0x60806040526064600055606460015534801561001a57600080fd5b50600280546001600160a01b0319163317905561021c8061003c6000396000f3fe608060405234801561001057600080fd5b50600436106100365760003560e01c80638da5cb5b1461003b5780639e1a19131461006b575b600080fd5b60025461004e906001600160a01b031681565b6040516001600160a01b0390911681526020015b60405180910390f35b610073610080565b6040516100629190610141565b6060600042336040516020016100b292919091825260601b6bffffffffffffffffffffffff1916602082015260340190565b60408051601f19818403018152828252805160209182012060038085526080850190935293506000929190820160608036833701905050905060005b600381101561013a576000546101049084610185565b828281518110610116576101166101a7565b602090810291909101015260089290921c9180610132816101bd565b9150506100ee565b5092915050565b6020808252825182820181905260009190848201906040850190845b818110156101795783518352928401929184019160010161015d565b50909695505050505050565b6000826101a257634e487b7160e01b600052601260045260246000fd5b500690565b634e487b7160e01b600052603260045260246000fd5b60006000198214156101df57634e487b7160e01b600052601160045260246000fd5b506001019056fea26469706673582212208f9fdf19ae06f82336a1fbfb18a146dcaca0a90ac5b206856329005869bafc9364736f6c634300080a0033",
    "linkReferences": {}
  }
}